:100000000C942A000C9442000C9442000C94420080
:100010000C9442000C9442000C9442000C94420058
:100020000C9442000C9442000C9442000C94420048
:100030000C9442000C9442000C9442000C94420038
:100040000C9442000C9442000C9442000C94420028
:100050000C94420011241FBECFE5D8E0DEBFCDBF17
:0C0060000E9436000C943400F894FFCF8E
:10006C008FEF34E020E898E044B384BB35BB25BB6C
:08007C0041B381BB92BBF8CF38
:040084000C940000D8
:00000001FF
